:020000040000FA
:020000000A28CC
:10000800FE00030EF0000A08F1000D280B288301FA
:100018006728831203138C1E122813281F288C129A
:100028001819172818281C28981C1B281C281F2852
:1000380018121816090071088A00700E8300FE0E47
:100048007E0E09004130831203139900602042306C
:1000580083120313990060200A3083120313990056
:1000680060200D3083120313990060200800831666
:1000780003139816181518121430990083120313D5
:10008800981718168C12831603138C160800F33071
:10009800831603138500FB308600F73083120313A1
:1000A8008500FB308600080080308316031381002A
:1000B8004B203B206B20080083160313981C6528EF
:1000C8006628602808005820262069280A280B1767
:0400D8008B1708007A
:02400E00183F59
:00000001FF
