:020000040000FA
:020000000A28CC
:10000800FE00030EF0000A08F1004F280B288301B8
:10001800A228F900F701F8011F287708790784005A
:1000280078208312031399009B200130F7070318E7
:10003800F80A0030F8077908362078087302031D9B
:1000480027287708720203182A282B2811280A3033
:100058008312031399009B200D3083120313990018
:100068009B200800F5007508F4007408F600402885
:100078000130F4007408F607760884007820003A06
:10008800031D472848283C2875087602F200F3012A
:10009800F21BF3030800831203138C1E54285528FF
:1000A80061288C12181959285A285E28981C5D282E
:1000B8005E28612818121816090071088A00700E47
:1000C8008300FE0E7E0E090083160313981618157A
:1000D80018121430990083120313981718168C12EB
:1000E800831603138C16080000308A000408840A5B
:1000F800820700344134423443344434453446346E
:1001080047340034F330831603138500FB30860030
:10011800F730831203138500FB3086000800803017
:1001280083160313810086206820A7200800831601
:100138000313981CA028A1289B28080093200130AD
:0C0148000D20A5280A280B178B170800B3
:02400E00183F59
:00000001FF
